{
  "abi": [
    {
      "inputs": [],
      "stateMutability": "payable",
      "type": "constructor"
    },
    {
      "inputs": [],
      "name": "MultiSender__InvalidNumberOfRecipients",
      "type": "error"
    },
    {
      "inputs": [],
      "name": "MultiSender__NotEnoughBalance",
      "type": "error"
    },
    {
      "anonymous": false,
      "inputs": [
        {
          "indexed": false,
          "internalType": "uint256",
          "name": "rechargeValue",
          "type": "uint256"
        }
      ],
      "name": "AccountRecharged",
      "type": "event"
    },
    {
      "anonymous": false,
      "inputs": [
        {
          "indexed": true,
          "internalType": "address",
          "name": "newOwner",
          "type": "address"
        },
        {
          "indexed": true,
          "internalType": "address",
          "name": "oldOwner",
          "type": "address"
        }
      ],
      "name": "OwnerChanged",
      "type": "event"
    },
    {
      "anonymous": false,
      "inputs": [
        {
          "indexed": false,
          "internalType": "address payable[]",
          "name": "recipients",
          "type": "address[]"
        },
        {
          "indexed": false,
          "internalType": "uint256[]",
          "name": "amounts",
          "type": "uint256[]"
        }
      ],
      "name": "TokensEther",
      "type": "event"
    },
    {
      "anonymous": false,
      "inputs": [
        {
          "indexed": true,
          "internalType": "contract ERC20",
          "name": "token",
          "type": "address"
        },
        {
          "indexed": false,
          "internalType": "address payable[]",
          "name": "recipients",
          "type": "address[]"
        },
        {
          "indexed": false,
          "internalType": "uint256[]",
          "name": "amounts",
          "type": "uint256[]"
        }
      ],
      "name": "TokensSent",
      "type": "event"
    },
    {
      "inputs": [],
      "name": "recharge",
      "outputs": [],
      "stateMutability": "payable",
      "type": "function"
    },
    {
      "inputs": [
        {
          "internalType": "address payable[]",
          "name": "recipients",
          "type": "address[]"
        },
        {
          "internalType": "uint256[]",
          "name": "amounts",
          "type": "uint256[]"
        }
      ],
      "name": "sendToMany",
      "outputs": [],
      "stateMutability": "payable",
      "type": "function"
    },
    {
      "inputs": [
        {
          "internalType": "contract ERC20",
          "name": "token",
          "type": "address"
        },
        {
          "internalType": "address payable[]",
          "name": "recipients",
          "type": "address[]"
        },
        {
          "internalType": "uint256[]",
          "name": "amounts",
          "type": "uint256[]"
        }
      ],
      "name": "sendTokenToMany",
      "outputs": [],
      "stateMutability": "nonpayable",
      "type": "function"
    },
    {
      "inputs": [],
      "name": "totalValueLocked",
      "outputs": [
        {
          "internalType": "uint256",
          "name": "",
          "type": "uint256"
        }
      ],
      "stateMutability": "view",
      "type": "function"
    }
  ],
  "bytecode": {
    "object": "0x6080604052600080546001600160a01b031916331790553460015561090f806100296000396000f3fe60806040526004361061003f5760003560e01c80634cddae28146100445780635fb2c6df1461004e5780638366c9c014610061578063ec18154e14610081575b600080fd5b61004c6100a9565b005b61004c61005c3660046106c8565b6100f5565b34801561006d57600080fd5b5061004c61007c36600461072c565b610292565b34801561008d57600080fd5b5061009760015481565b60405190815260200160405180910390f35b34600160008282546100bb91906107b8565b90915550506040513481527f8d5de51ef3f756a89f50e92059846b9d44708b72797ab1a92a93ba1eacf120bf9060200160405180910390a1565b346001600082825461010791906107b8565b9091555050805182511461012e57604051637cee1c0560e11b815260040160405180910390fd5b6000805b82518110156101745782818151811061014d5761014d6107d1565b60200260200101518261016091906107b8565b91508061016c816107e7565b915050610132565b5060015481111561019757604051622168e960e41b815260040160405180910390fd5b60005b8351811015610253578281815181106101b5576101b56107d1565b6020026020010151600160008282546101ce9190610800565b925050819055508381815181106101e7576101e76107d1565b60200260200101516001600160a01b03166108fc84838151811061020d5761020d6107d1565b60200260200101519081150290604051600060405180830381858888f19350505050158015610240573d6000803e3d6000fd5b508061024b816107e7565b91505061019a565b507f214c2a25f63efe926fb880e176652eb67ff0da86660503f47af9d867375d736e8383604051610285929190610813565b60405180910390a1505050565b80518251146102e85760405162461bcd60e51b815260206004820152601c60248201527f496e76616c6964206e756d626572206f6620726563697069656e74730000000060448201526064015b60405180910390fd5b6000805b8251811015610388576000838281518110610309576103096107d1565b60200260200101511161034f5760405162461bcd60e51b815260206004820152600e60248201526d125b9d985b1a5908185b5bdd5b9d60921b60448201526064016102df565b828181518110610361576103616107d1565b60200260200101518261037491906107b8565b915080610380816107e7565b9150506102ec565b50604051636eb1769f60e11b81523360048201523060248201526000906001600160a01b0386169063dd62ed3e90604401602060405180830381865afa1580156103d6573d6000803e3d6000fd5b505050506040513d601f19601f820116820180604052508101906103fa9190610897565b9050808211156104455760405162461bcd60e51b8152602060048201526016602482015275496e73756666696369656e7420616c6c6f77616e636560501b60448201526064016102df565b80821161052c5760005b845181101561052a57856001600160a01b03166323b872dd3387848151811061047a5761047a6107d1565b6020026020010151878581518110610494576104946107d1565b60209081029190910101516040516001600160e01b031960e086901b1681526001600160a01b03938416600482015292909116602483015260448201526064016020604051808303816000875af11580156104f3573d6000803e3d6000fd5b505050506040513d601f19601f8201168201806040525081019061051791906108b0565b5080610522816107e7565b91505061044f565b505b846001600160a01b03167fe77905a280f931d47f611fce5f98cfd2849f32e13a73b93938947327e8d46b798585604051610567929190610813565b60405180910390a25050505050565b634e487b7160e01b600052604160045260246000fd5b604051601f8201601f1916810167ffffffffffffffff811182821017156105b5576105b5610576565b604052919050565b600067ffffffffffffffff8211156105d7576105d7610576565b5060051b60200190565b6001600160a01b03811681146105f657600080fd5b50565b600082601f83011261060a57600080fd5b8135602061061f61061a836105bd565b61058c565b82815260059290921b8401810191818101908684111561063e57600080fd5b8286015b84811015610662578035610655816105e1565b8352918301918301610642565b509695505050505050565b600082601f83011261067e57600080fd5b8135602061068e61061a836105bd565b82815260059290921b840181019181810190868411156106ad57600080fd5b8286015b8481101561066257803583529183019183016106b1565b600080604083850312156106db57600080fd5b823567ffffffffffffffff808211156106f357600080fd5b6106ff868387016105f9565b9350602085013591508082111561071557600080fd5b506107228582860161066d565b9150509250929050565b60008060006060848603121561074157600080fd5b833561074c816105e1565b9250602084013567ffffffffffffffff8082111561076957600080fd5b610775878388016105f9565b9350604086013591508082111561078b57600080fd5b506107988682870161066d565b9150509250925092565b634e487b7160e01b600052601160045260246000fd5b808201808211156107cb576107cb6107a2565b92915050565b634e487b7160e01b600052603260045260246000fd5b6000600182016107f9576107f96107a2565b5060010190565b818103818111156107cb576107cb6107a2565b604080825283519082018190526000906020906060840190828701845b828110156108555781516001600160a01b031684529284019290840190600101610830565b5050508381038285015284518082528583019183019060005b8181101561088a5783518352928401929184019160010161086e565b5090979650505050505050565b6000602082840312156108a957600080fd5b5051919050565b6000602082840312156108c257600080fd5b815180151581146108d257600080fd5b939250505056fea26469706673582212203532f66de8a92ee53d71763573dba16d53a9a888c8c05dda86c33c25482c38a864736f6c63430008130033",
    "linkReferences": {}
  },
  "methodIdentifiers": {
    "recharge()": "4cddae28",
    "sendToMany(address[],uint256[])": "5fb2c6df",
    "sendTokenToMany(address,address[],uint256[])": "8366c9c0",
    "totalValueLocked()": "ec18154e"
  },
  "id": 23
}